S0120000456E764D6F6E69746F722E7372656301
S113000097C20000A8C20000A6C20000A4C200005B
S1130010A2C20000A0C200009EC200009CC2000058
S11300209AC2000098C2000096C2000094C2000068
S113003092C2000090C200008EC200008CC2000078
S11300408AC2000088C2000086C2000084C2000088
S113005082C2000080C200007EC200007CC2000098
S11300607AC2000078C200000080C0E0E060E0E0F6
S1130070C08000000000000070FFFF0100000000CD
S1130080FFFFFE0000000000000F1F3C383038382E
S11300901F0F0300000000000000000080E0E000EB
S11300A000000000000000000000030303FFFF0045
S11300B0000000000000000000003838383F3F38DE
S11300C0383800000000000000C0C0E06060E0E0DC
S11300D0C0800000000000000001000080C0E0F9C2
S11300E03F1F000000000000003C3E3F3F3B39380A
S11300F0383838000000000000C0E0E06060E0E054
S1130100C0C0000000000000000100003030387D55
S1130110EFCF000000000000001C38383030383CBD
S11301201F0F010000000000000000000080C0E07C
S1130130E000000000000000E0F0F8DECFC7C1FFDF
S1130140FFC0C00000000000000000000000003FED
S11301503F0000000000000000E0E0E0E0E0E0E03C
S1130160E0E0E00000000000003F3F3F383830701E
S1130170F0E0000000000000001C38383030383C4B
S11301801F0F010000000000000080C0C0E060609C
S1130190E0E0000000000000E0FEFF3739181838E6
S11301A0F0F0C00000000000000F1F1C3830303891
S11301B01F0F07000000000000E0E0E0E0E0E0E0E6
S11301C0E0E0E000000000000000000080E0F87EB5
S11301D01F070100000000000000383E1F07010057
S11301E000000000000000000080C0E0E06060E06B
S11301F0C0C000000000000000CFFF7F38307070E6
S1130200FFEFC70000000000030F1F3C38303038F8
S11302101F1F0F00000000000080C0E0E060E0E06D
S1130220C0800000000000000C3F7FF1E0C0C0E18E
S1130230FFFFFE0000000000000038303038381E98
S11302400F07000000000000000000000000000094
S1130250000000000000000000000000000000009A
S113026000000000000000003C3C3C0000000000D6
S1130270000000000000000000000000000000007A
S1130280000000000000000000004040404040FE2C
S1130290FE40404040400000000000000000000F0D
S11302A00F0000000000000000000000000000003B
S11302B000000000000000000040404040404000BA
S11302C0000000000000000000000000000000002A
S11302D0000000000000000000000000000000001A
S11302E0000000000000000000000000000000000A
S11302F000000000000000000000000000000000FA
S113030000000000000000000000000000000000E9
S1130310002F000000000700070000147F147F1462
S113032000242A7F2A1200626408132300364955E8
S1130330225000000503000000001C2241000000C0
S113034041221C000014083E08140008083E080856
S1130350000000A0600000080808080800006060B1
S11303600000002010080402003E5149453E0000F0
S1130370427F4000004261514946002141454B31D2
S1130380001814127F10002745454539003C4A499E
S11303904930000171090503003649494936000610
S11303A04949291E00003636000000005636000078
S11303B000081422410000141414141400004122F3
S11303C0140800020151090600324959513E007CCB
S11303D01211127C007F49494936003E41414122B5
S11303E0007F4141221C007F49494941007F09099E
S11303F00901003E4149497A007F0808087F00004E
S1130400417F4100002040413F01007F0814224108
S1130410007F40404040007F020C027F007F0408C0
S1130420107F003E4141413E007F09090906003E1C
S11304304151215E007F0919294600464949493145
S11304400001017F0101003F4040403F001F204068
S1130450201F003F4038403F006314081463000726
S11304600870080700615149454300007F4141007D
S113047000552A552A55000041417F00000402011D
S113048002040040404040400000010204000020FB
S113049054545478007F4844443800384444442039
S11304A000384444487F00385454541800087E09E6
S11304B001020018A4A4A47C007F080404780000AE
S11304C0447D4000004080847D00007F102844006B
S11304D00000417F4000007C04180478007C08047C
S11304E0047800384444443800FC242424180018B8
S11304F0242418FC007C08040408004854545420A4
S113050000043F444020003C4040207C001C20402C
S1130510201C003C4030403C004428102844001C6F
S1130520A0A0A07C004464544C44000006090906C1
S113053011241FBECFEFD8E0DEBFCDBF11E0A0E095
S1130540B1E0E6E4F9E002C005900D92AE31B107E6
S1130550D9F732D1F6C154CD5C98611102C05D98CF
S113056001C05D9A8EBD0DB407FEFDCF5C9A8EB5B9
S11305700895FF920F931F93CF93DF93F62E80522B
S113058090E08C01000F111F800F911F8C01000F50
S1130590111FE801C85FDC4F025F1C4FFE0184910C
S11305A0F110809561E0D8DF2196C017D107B1F72B
S11305B0DF91CF911F910F91FF900895CF93C82F92
S11305C0862F60E08064C8DF60E08C2F8068C4DF21
S11305D0CF9108951F93CF93DF93EA01122FEEDF9B
S11305E08881882331F02196612FC3DF899181119D
S11305F0FBCFDF91CF911F9108957F928F929F92AD
S1130600AF92BF92CF92DF92EF92FF920F931F931C
S1130610CF93DF93882EB22E4E3241F04B3241F00D
S11306204D3241F0403241F04F7007C04AE005C0FE
S11306304BE003C04CE001C04DE080E3489F7001F3
S11306401124670180E3C80ED11CA62E712C912CB5
S11306506A2D882DB3DFC72DD92D870108591F4F67
S1130660F801EC0FFD1F8491B110809561E074DFF7
S11306702196C031D105A1F7A39480E1E80EF11CC5
S1130680EC14FD0429F7DF91CF911F910F91FF9096
S1130690EF90DF90CF90BF90AF909F908F907F901E
S11306A00895DF92EF92FF920F931F93CF93DF93FE
S11306B0F82ED62EE22EC42FD52F0EC02E2D6D2D42
S11306C08F2D9BDF2196F80180818E3219F4F5E09D
S11306D0FF0E02C08CE0F80E8E0148814111EECF6E
S11306E0DF91CF911F910F91FF90EF90DF900895CC
S11306F0CF93DF9360E08CE02FDF60E080E82CDFB5
S1130700C8EFD1E061E080E027DF21972097D1F79F
S1130710DF91CF91089584B18C6284B98AB18867DE
S11307208AB95B985E9A88EE93E00197F1F75B9A39
S113073088EE93E00197F1F783E58CBD8DB5816078
S11307408DBD60E081E208DF60E080EC05DF60E001
S113075086E002DF60E083E1FFDE60E080E2FCDE51
S1130760C7DF60E08CE0F8DE5E980895EAE7F0E029
S1130770808187608083ACE7B0E08C9180648C9347
S11307808081806880838081806480830895ECE721
S1130790F0E09081907F90839081892B8083EAE7B9
S11307A0F0E0808180648083808186FDFDCF80912C
S11307B07800909179000895CF93DF9300D000D012
S11307C0CDB7DEB71C82D2DF80E197E20197F1F763
S11307D0A2DF20E040E051E060E080E0FBDE20E0CA
S11307E04EE051E063E080E0F5DE20E030E00F2EE3
S11307F0E12CFCE6FF2EF02D0F2EF4E6BF2EF02D9B
S1130800C12CD12C0F2EF4E69F2EF02DA12C0FEF2E
S11308101FEF05C0C8010197F1F72F5F3F4F223347
S11308203105C4F380E0B3DFBC01C70167D06B516D
S11308307109B69EF001B79EF00D1124EC5DF540F0
S11308409F01A9EEB4EB6ED0E81BF90BAF015695EE
S11308504795840F951FAC010024440F551F001CBD
S1130860440F551F001C452F502D4536510510F0DF
S1130870492D5A2D4436510511F481E301C080E21B
S113088089839A01ADECBCEC4DD0FC01F695E7955B
S1130890F695E795F695E7959F0144D0969587954B
S11308A096958795969587959C01220F331F880FFF
S11308B0991F880F991F880F991F820F931F9F01FB
S11308C0281B390BC901805D8A83CF01880F991FCA
S11308D0EE0FFF1FEE0FFF1FEE0FFF1FE80FF91FB4
S11308E04E1B5F0B405D4B8320E0AE014F5F5F4FBB
S11308F061E080E0D6DE2C2D3D2D91CFAA1BBB1BE1
S113090051E107C0AA1FBB1FA617B70710F0A61B0B
S1130910B70B881F991F5A95A9F780959095BC012C
S1130920CD010895A29FB001B39FC001A39F700D94
S1130930811D1124911DB29F700D811D1124911DE3
S10909400895F894FFCFB6
S113094620416972205175616C6974793A002020DE
S11109562020202020252046726573680000B2
S9030000FC
